:100000000C94340018950000189500001895000015
:10001000189500001895000018950000189500002C
:10002000189500001895000018950000189500001C
:10003000189500001895000018950000189500000C
:1000400018950000189500001895000018950000FC
:100050000C949A011895000018950000189500005E
:1000600018950000189500008FEF8DBFC0EEE6ECEC
:100070004E2E88E08EBFD8E0F8E05F2EA89584B7BA
:10008000082E877F84BF88E1992780936000909332
:100090006000EEEFF7E0A0E0B1E088278D933197A4
:1000A000E9F780E18093C40080E08093C50088E197
:1000B0008093C10072E07093C000662453985B9AED
:1000C0005398529A80E18093C40080E08093C500E9
:1000D0007091C00072607093C00088E18093C1008D
:1000E00086E08093C200459A449A70E07093B9000C
:1000F00070E27093B8000E9419027091C1007F7B7A
:100100007093C10078948AE5A0E0B1E08C9381E619
:10011000A1E0B1E08C9383E6A2E0B1E08C9389E6A4
:10012000A3E0B1E08C9381E6A4E0B1E08C9384E796
:10013000A5E0B1E08C938FE6A6E0B1E08C938BE66E
:10014000A7E0B1E08C9388E0D2018C9381E00E941B
:100150006A020E94F001229681E00E9466020E94DB
:100160000302ACE2B1E08C9300912C01003018F056
:1001700011F00C94BD000C9496010E9430021EE414
:100180000E943A020E9432020E9430021FE40E9442
:100190003A020E945902ADE2B1E01C930E9459025A
:1001A000AEE2B1E01C930E945902AFE2B1E01C93B1
:1001B0000E945702A0E3B1E01C930E94320200911A
:1001C0002D0140EC0423ADE3B1E00C9380913D019F
:1001D00080930001ADE2B1E08C918F738C9390918C
:1001E0002D0180912E01AEE3B1E08D939C93EEE35F
:1001F000F1E0D190E080FF2400270E941903A9E3D9
:10020000B1E00E94B602E0E3F9E00E943B04E9E3BA
:10021000F1E00E94AC020E944603EDE0F0E0A9E3A9
:10022000B1E00E947F02E4E3F9E00E943B04E9E3CD
:10023000F1E00E94AC020E949F03EDE0F0E0A9E330
:10024000B1E00E947F02E9E3F1E00E944B04EDE09F
:10025000F0E00E94C102A8E3B1E0DC928091380195
:100260008093010190912F0180913001AEE3B1E0C4
:100270008D939C9392E0AEE3B1E00E947002EEE3B6
:10028000F1E0D190E080FF2400270E941903A9E348
:10029000B1E00E94B602E0E3F9E00E943B04E9E32A
:1002A000F1E00E94AC020E944603EDE0F0E0A9E319
:1002B000B1E00E947F02E8E3F9E00E943B04E9E339
:1002C000F1E00E94AC020E949F03EDE0F0E0A9E3A0
:1002D000B1E00E947F02ECE3F9E00E943B04E9E315
:1002E000F1E00E94AC020E94DE03EDE0F0E0A9E341
:1002F000B1E00E947F02E9E3F1E00E944B04EDE0EF
:10030000F0E00E94C102A7E3B1E0DC9280913701E6
:100310008093020183E0D2018C9381E00E946A0203
:100320000E94F001229681E00E9466020C94AF00C8
:10033000F894FFCF0F921F922F923F924F925F92AD
:100340007F92AF92BF920F931F932F933F934F9340
:100350005F936F937F938F939F93AF93BF93CF934D
:10036000DF93EF93FF938FB78F93A4E1B1E0AD904C
:10037000BB24AFEFB0E0AA0DBB1D8C918093C600EB
:100380004091150100911401041710F00C94CF0155
:10039000A4E1B1E08C918F5F8C930C94D4017091A7
:1003A000C1007F7B7093C1008F918FBFFF91EF9150
:1003B000DF91CF91BF91AF919F918F917F916F917D
:1003C0005F914F913F912F911F910F91BF90AF90EF
:1003D0007F905F904F903F902F901F900F901895B7
:1003E00082E080931401A881B9818C9180931501DA
:1003F000A0E0B1E08C918093C6007091C100706460
:100400007093C100089588270090C00007FE0895EA
:1004100000C08091C00087FFFCCF8091C600089586
:100420003197F1F70895689462F80895E89462F8B6
:1004300008953C983D98449A459A0895689440934D
:10044000BC008F939F9388279927019629F04091AC
:10045000BC0047FFFACFE8949F918F9162F808950E
:1004600044EAECCF44E94093BC004091BC0044FD19
:10047000FCCF08951093BB0044E8E0DF8F939F9377
:1004800088279927019671F04091B900487F483F2D
:10049000C9F3E894483139F0483229F0403419F072
:1004A000403509F068949F918F9162F8089544E86F
:1004B00001C044ECC3DF1091BB004091B900487FFC
:1004C000483FD9F30895481A590A0895481A8827C9
:1004D000580A089599275A924A92480E591E08952B
:1004E000903041F00D911C91169507959A95E1F782
:1004F0001C930E930895C89531960020089594E0BA
:1005000081918D939A95E1F70895B7FE089590E84B
:10051000B91611F4D0FE08959FEFD91AE90AF90A25
:1005200009F4039508950F928F939F93D216E306D3
:10053000F4060FB680E890E8802795270FBE89075C
:1005400039F00FB6892B87FD02C081E008260FBE67
:100550009F918F910F900895D190E190F19001912A
:10056000089521913191419151910895DD92ED923B
:10057000FD920C930895502F2D2D3E2D4F2D612F60
:100580000895EADF992711278F2D880F80E8F82A30
:10059000802F881F08F41FEF41F08F57082F07FDA9
:1005A00004C0003240F08FEF01C08827982FD82E6A
:1005B000E82EF82E09C08FE1801B082FF694E794EF
:1005C000D79497950A95D1F7112351F09095D0942F
:1005D000E094F09481E0980F8827D81EE81EF81E5A
:1005E0000F2DFE2CED2CD92E0895D094E094F0948C
:1005F00091E0D90E9927E91EF91E10950895652FEF
:1006000090E8440F551F5927990F47956078102F90
:1006100090E8FF0C001F0927990FF7941078003815
:100620000895FF0C90E89027110F9795F794092FE4
:1006300008951127BD2CDE2CEF2CF02E0EE1FF20AB
:1006400039F4FE2CED2CDB2CBB240850C2F752C031
:1006500032F00A95BB0CDD1CEE1CFF1CF9CF55DFF8
:10066000E0CF2DEC3CEC4CEC5DE366270FC074DF73
:1006700082DFDD24EE2490E8F92E0FE307C071DF5E
:1006800005C02227332740E251E46627552351F164
:10069000002381F1B4DF71F11627005850580894F7
:1006A000050B18F407FD03C025C007FD23C04695C0
:1006B00037952795F694E794D79425D0FF202AF014
:1006C000DD0CEE1CFF1C015073F09D2D969548F03B
:1006D000DD203AF4EE202AF491E0D90E9927E91EA4
:1006E000F91E9FCF07C09FE7092FF92A9FEFD92E48
:1006F000E92E0895DD24EE24FF2400271127089514
:100700000FE79FEFF2CF9F929924AA24BB2488E1A0
:10071000D216E306F40628F0D21AE30AF40A089483
:1007200001C08894991CAA1CBB1CDD0CEE1CFF1C8C
:100730008A9571F7D92CEA2CFB2C9F9008955FDFE6
:10074000D9F05038C9F016270058952F90580894C2
:10075000091F12F418F40EC008F00EC00FD0FF20CD
:100760002AF0BB0CDD1CEE1CFF1C02C0039513F02D
:10077000CCDE57CF0C9473030C947A039F92FF92B4
:10078000EF928D2DFF24EE24DD24BB2493E0849F83
:100790001001829FB00CD11CE21CF31C839FD00C73
:1007A000E11C2224F21C9A9531F0BD2CDE2CEF2C9A
:1007B000FF248F91ECCF9F900895D3DE20DF503837
:1007C00029F090E869270CC00AF045D02ACF5FE3F2
:1007D00022273327442701C0C4DE11DF5038B1F38C
:1007E000003899F3902F951B8BF312F434D0FACF85
:1007F000983118F0222733274427983028F0232FE8
:10080000342F44279850F9CF992329F046953795EE
:1008100027959A95D9F7912F962742F014D0B0F6E4
:10082000F794E794D7940F5F8BF65DCF10D051F01B
:1008300008F4DBDEFF2052F2DD0CEE1CFF1C015041
:10084000CBF751CF57CFD20EE31EF41E0895D21A24
:10085000E30AF40A0895DF92EF92FF920F931F9339
:10086000D22EE32EF42E052F162F6F915F914F910C
:100870003F912F9108950E947B02202D0E947B02C0
:10088000302D0E947B02402D0E947B02502D089546
:1008900042D080E003C03FD0802F8078882321F0B1
:1008A000DF92EF92FF920F938F930E94FF02802FAF
:1008B000839512F41FDF1BC080958A95885E0AF429
:1008C00015C088501AF40CD0D92210C0DD248850ED
:1008D0001AF406D0E9220AC0EE2402D0F92206C09A
:1008E0009FEF8770990F8A95EAF7089519D08F9135
:1008F0008823D9F35F914F913F912F910F9313DE8E
:100900000F9199F390F302D0506867CF5FE340E80E
:10091000332722270895D190E190F1900191089515
:10092000FF0C90E89027110F9795F794092F0895E1
:1009300000F47F460000C84200002543000020422A
:00000001FF
